{
  "contractName": "MovieRankFactory",
  "abi": [
    {
      "constant": true,
      "inputs": [
        {
          "name": "",
          "type": "uint256"
        }
      ],
      "name": "movieRankArray",
      "outputs": [
        {
          "name": "",
          "type": "address"
        }
      ],
      "payable": false,
      "stateMutability": "view",
      "type": "function"
    },
    {
      "constant": true,
      "inputs": [
        {
          "name": "",
          "type": "uint256"
        }
      ],
      "name": "movieIdList",
      "outputs": [
        {
          "name": "",
          "type": "uint256"
        }
      ],
      "payable": false,
      "stateMutability": "view",
      "type": "function"
    },
    {
      "constant": true,
      "inputs": [],
      "name": "getRankingAddressList",
      "outputs": [
        {
          "name": "",
          "type": "address[]"
        }
      ],
      "payable": false,
      "stateMutability": "view",
      "type": "function"
    },
    {
      "constant": true,
      "inputs": [
        {
          "name": "",
          "type": "uint256"
        }
      ],
      "name": "movieIdtoIndex",
      "outputs": [
        {
          "name": "",
          "type": "uint256"
        }
      ],
      "payable": false,
      "stateMutability": "view",
      "type": "function"
    },
    {
      "constant": true,
      "inputs": [],
      "name": "getRankingCount",
      "outputs": [
        {
          "name": "",
          "type": "uint256"
        }
      ],
      "payable": false,
      "stateMutability": "view",
      "type": "function"
    },
    {
      "constant": true,
      "inputs": [
        {
          "name": "",
          "type": "uint256"
        }
      ],
      "name": "rankingList",
      "outputs": [
        {
          "name": "",
          "type": "address"
        }
      ],
      "payable": false,
      "stateMutability": "view",
      "type": "function"
    },
    {
      "constant": true,
      "inputs": [],
      "name": "getRankList",
      "outputs": [
        {
          "name": "",
          "type": "uint8[]"
        }
      ],
      "payable": false,
      "stateMutability": "view",
      "type": "function"
    },
    {
      "constant": false,
      "inputs": [
        {
          "name": "_rank",
          "type": "uint8"
        }
      ],
      "name": "newRanking",
      "outputs": [
        {
          "name": "",
          "type": "uint256"
        }
      ],
      "payable": false,
      "stateMutability": "nonpayable",
      "type": "function"
    },
    {
      "constant": true,
      "inputs": [],
      "name": "averageRank",
      "outputs": [
        {
          "name": "",
          "type": "uint256"
        }
      ],
      "payable": false,
      "stateMutability": "view",
      "type": "function"
    },
    {
      "constant": true,
      "inputs": [
        {
          "name": "_address",
          "type": "address"
        }
      ],
      "name": "getRanking",
      "outputs": [
        {
          "name": "",
          "type": "uint8"
        }
      ],
      "payable": false,
      "stateMutability": "view",
      "type": "function"
    },
    {
      "constant": true,
      "inputs": [
        {
          "name": "_index",
          "type": "uint256"
        }
      ],
      "name": "getRankingByIndex",
      "outputs": [
        {
          "name": "",
          "type": "uint8"
        }
      ],
      "payable": false,
      "stateMutability": "view",
      "type": "function"
    },
    {
      "inputs": [],
      "payable": false,
      "stateMutability": "nonpayable",
      "type": "constructor"
    },
    {
      "constant": false,
      "inputs": [
        {
          "name": "_movieId",
          "type": "uint256"
        }
      ],
      "name": "createMovieRankContract",
      "outputs": [],
      "payable": false,
      "stateMutability": "nonpayable",
      "type": "function"
    },
    {
      "constant": true,
      "inputs": [
        {
          "name": "_movieId",
          "type": "uint256"
        }
      ],
      "name": "getMovieRank",
      "outputs": [
        {
          "name": "",
          "type": "address"
        }
      ],
      "payable": false,
      "stateMutability": "view",
      "type": "function"
    },
    {
      "constant": true,
      "inputs": [
        {
          "name": "_movieId",
          "type": "uint256"
        }
      ],
      "name": "mrfAverageRank",
      "outputs": [
        {
          "name": "",
          "type": "uint256"
        }
      ],
      "payable": false,
      "stateMutability": "view",
      "type": "function"
    },
    {
      "constant": true,
      "inputs": [
        {
          "name": "_movieId",
          "type": "uint256"
        }
      ],
      "name": "mrfGetRankingCount",
      "outputs": [
        {
          "name": "",
          "type": "uint256"
        }
      ],
      "payable": false,
      "stateMutability": "view",
      "type": "function"
    },
    {
      "constant": true,
      "inputs": [
        {
          "name": "_movieId",
          "type": "uint256"
        },
        {
          "name": "_index",
          "type": "uint256"
        }
      ],
      "name": "mrfGetRankingByIndex",
      "outputs": [
        {
          "name": "",
          "type": "uint256"
        }
      ],
      "payable": false,
      "stateMutability": "view",
      "type": "function"
    },
    {
      "constant": true,
      "inputs": [
        {
          "name": "_movieId",
          "type": "uint256"
        }
      ],
      "name": "mrfGetRankingAdressesList",
      "outputs": [
        {
          "name": "",
          "type": "address[]"
        }
      ],
      "payable": false,
      "stateMutability": "view",
      "type": "function"
    },
    {
      "constant": true,
      "inputs": [
        {
          "name": "_movieId",
          "type": "uint256"
        }
      ],
      "name": "mrfGetRankList",
      "outputs": [
        {
          "name": "",
          "type": "uint8[]"
        }
      ],
      "payable": false,
      "stateMutability": "view",
      "type": "function"
    },
    {
      "constant": true,
      "inputs": [],
      "name": "getMovieIdList",
      "outputs": [
        {
          "name": "",
          "type": "uint256[]"
        }
      ],
      "payable": false,
      "stateMutability": "view",
      "type": "function"
    },
    {
      "constant": true,
      "inputs": [],
      "name": "getAllAverageRank",
      "outputs": [
        {
          "name": "",
          "type": "uint256[]"
        }
      ],
      "payable": false,
      "stateMutability": "view",
      "type": "function"
    }
  ],
  "bytecode": "0x608060405233600360006101000a81548173ffffffffffffffffffffffffffffffffffffffff021916908373ffffffffffffffffffffffffffffffffffffffff16021790555034801561005157600080fd5b50600061005c6100e7565b604051809103906000f080158015610078573d6000803e3d6000fd5b50905060028190806001815401808255809150509060018203906000526020600020016000909192909190916101000a81548173ffffffffffffffffffffffffffffffffffffffff021916908373ffffffffffffffffffffffffffffffffffffffff16021790555050506100f7565b60405161082d80611dd083390190565b611cca806101066000396000f3fe608060405260043610610112576000357c0100000000000000000000000000000000000000000000000000000000900463ffffffff16806305e35124146101175780630b8c3a691461019257806311a5b9c41461020d5780631eafe6911461025c57806336ef4bb1146102ab57806352b72ade146102fa57806354d4e0d4146103665780635b51b191146103f65780635da905f5146104455780636b901135146104705780637245e9da146104eb5780637916a67514610544578063970fd42a146105b0578063a1a200c514610640578063bf022b2e146106ac578063c466df50146106e7578063ca0788c614610753578063e07d2e4e146107a5578063e2aa1ef3146107d0578063ed60b6631461083b575b600080fd5b34801561012357600080fd5b506101506004803603602081101561013a57600080fd5b8101908080359060200190929190505050610890565b604051808273ffffffffffffffffffffffffffffffffffffffff1673ffffffffffffffffffffffffffffffffffffffff16815260200191505060405180910390f35b34801561019e57600080fd5b506101cb600480360360208110156101b557600080fd5b81019080803590602001909291905050506108e6565b604051808273ffffffffffffffffffffffffffffffffffffffff1673ffffffffffffffffffffffffffffffffffffffff16815260200191505060405180910390f35b34801561021957600080fd5b506102466004803603602081101561023057600080fd5b8101908080359060200190929190505050610924565b6040518082815260200191505060405180910390f35b34801561026857600080fd5b506102956004803603602081101561027f57600080fd5b81019080803590602001909291905050506109d2565b6040518082815260200191505060405180910390f35b3480156102b757600080fd5b506102e4600480360360208110156102ce57600080fd5b81019080803590602001909291905050506109f5565b6040518082815260200191505060405180910390f35b34801561030657600080fd5b5061030f610aa3565b6040518080602001828103825283818151815260200191508051906020019060200280838360005b83811015610352578082015181840152602081019050610337565b505050509050019250505060405180910390f35b34801561037257600080fd5b5061039f6004803603602081101561038957600080fd5b8101908080359060200190929190505050610b31565b6040518080602001828103825283818151815260200191508051906020019060200280838360005b838110156103e25780820151818401526020810190506103c7565b505050509050019250505060405180910390f35b34801561040257600080fd5b5061042f6004803603602081101561041957600080fd5b8101908080359060200190929190505050610c35565b6040518082815260200191505060405180910390f35b34801561045157600080fd5b5061045a610c4d565b6040518082815260200191505060405180910390f35b34801561047c57600080fd5b506104a96004803603602081101561049357600080fd5b8101908080359060200190929190505050610c5a565b604051808273ffffffffffffffffffffffffffffffffffffffff1673ffffffffffffffffffffffffffffffffffffffff16815260200191505060405180910390f35b3480156104f757600080fd5b5061052e6004803603604081101561050e57600080fd5b810190808035906020019092919080359060200190929190505050610c98565b6040518082815260200191505060405180910390f35b34801561055057600080fd5b50610559610d55565b6040518080602001828103825283818151815260200191508051906020019060200280838360005b8381101561059c578082015181840152602081019050610581565b505050509050019250505060405180910390f35b3480156105bc57600080fd5b506105e9600480360360208110156105d357600080fd5b8101908080359060200190929190505050610df5565b6040518080602001828103825283818151815260200191508051906020019060200280838360005b8381101561062c578082015181840152602081019050610611565b505050509050019250505060405180910390f35b34801561064c57600080fd5b50610655610ef9565b6040518080602001828103825283818151815260200191508051906020019060200280838360005b8381101561069857808201518184015260208101905061067d565b505050509050019250505060405180910390f35b3480156106b857600080fd5b506106e5600480360360208110156106cf57600080fd5b8101908080359060200190929190505050610fc1565b005b3480156106f357600080fd5b506106fc611117565b6040518080602001828103825283818151815260200191508051906020019060200280838360005b8381101561073f578082015181840152602081019050610724565b505050509050019250505060405180910390f35b34801561075f57600080fd5b5061078f6004803603602081101561077657600080fd5b81019080803560ff16906020019092919050505061116f565b6040518082815260200191505060405180910390f35b3480156107b157600080fd5b506107ba611313565b6040518082815260200191505060405180910390f35b3480156107dc57600080fd5b5061081f600480360360208110156107f357600080fd5b81019080803573ffffffffffffffffffffffffffffffffffffffff1690602001909291905050506113be565b604051808260ff1660ff16815260200191505060405180910390f35b34801561084757600080fd5b506108746004803603602081101561085e57600080fd5b8101908080359060200190929190505050611416565b604051808260ff1660ff16815260200191505060405180910390f35b6000600260046000848152602001908152602001600020548154811015156108b457fe5b9060005260206000200160009054906101000a900473ffffffffffffffffffffffffffffffffffffffff169050919050565b6002818154811015156108f557fe5b906000526020600020016000915054906101000a900473ffffffffffffffffffffffffffffffffffffffff1681565b600061092f82610890565b73ffffffffffffffffffffffffffffffffffffffff1663e07d2e4e6040518163ffffffff167c010000000000000000000000000000000000000000000000000000000002815260040160206040518083038186803b15801561099057600080fd5b505afa1580156109a4573d6000803e3d6000fd5b505050506040513d60208110156109ba57600080fd5b81019080805190602001909291905050509050919050565b6005818154811015156109e157fe5b906000526020600020016000915090505481565b6000610a0082610890565b73ffffffffffffffffffffffffffffffffffffffff16635da905f56040518163ffffffff167c010000000000000000000000000000000000000000000000000000000002815260040160206040518083038186803b158015610a6157600080fd5b505afa158015610a75573d6000803e3d6000fd5b505050506040513d6020811015610a8b57600080fd5b81019080805190602001909291905050509050919050565b60606001805480602002602001604051908101604052809291908181526020018280548015610b2757602002820191906000526020600020905b8160009054906101000a900473ffffffffffffffffffffffffffffffffffffffff1673ffffffffffffffffffffffffffffffffffffffff1681526020019060010190808311610add575b5050505050905090565b6060610b3c82610890565b73ffffffffffffffffffffffffffffffffffffffff1663a1a200c56040518163ffffffff167c010000000000000000000000000000000000000000000000000000000002815260040160006040518083038186803b158015610b9d57600080fd5b505afa158015610bb1573d6000803e3d6000fd5b505050506040513d6000823e3d601f19601f820116820180604052506020811015610bdb57600080fd5b810190808051640100000000811115610bf357600080fd5b82810190506020810184811115610c0957600080fd5b8151856020820283011164010000000082111715610c2657600080fd5b50509291905050509050919050565b60046020528060005260406000206000915090505481565b6000600180549050905090565b600181815481101515610c6957fe5b906000526020600020016000915054906101000a900473ffffffffffffffffffffffffffffffffffffffff1681565b6000610ca383610890565b73ffffffffffffffffffffffffffffffffffffffff1663ed60b663836040518263ffffffff167c01000000000000000000000000000000000000000000000000000000000281526004018082815260200191505060206040518083038186803b158015610d0f57600080fd5b505afa158015610d23573d6000803e3d6000fd5b505050506040513d6020811015610d3957600080fd5b810190808051906020019092919050505060ff16905092915050565b606080600580549050604051908082528060200260200182016040528015610d8c5781602001602082028038833980820191505090505b50905060008090505b600580549050811015610ded57610dc4600582815481101515610db457fe5b9060005260206000200154610924565b8282815181101515610dd257fe5b90602001906020020181815250508080600101915050610d95565b508091505090565b6060610e0082610890565b73ffffffffffffffffffffffffffffffffffffffff166352b72ade6040518163ffffffff167c010000000000000000000000000000000000000000000000000000000002815260040160006040518083038186803b158015610e6157600080fd5b505afa158015610e75573d6000803e3d6000fd5b505050506040513d6000823e3d601f19601f820116820180604052506020811015610e9f57600080fd5b810190808051640100000000811115610eb757600080fd5b82810190506020810184811115610ecd57600080fd5b8151856020820283011164010000000082111715610eea57600080fd5b50509291905050509050919050565b606080600180549050604051908082528060200260200182016040528015610f305781602001602082028038833980820191505090505b50905060008090505b600180549050811015610fb957610f88600182815481101515610f5857fe5b9060005260206000200160009054906101000a900473ffffffffffffffffffffffffffffffffffffffff166113be565b8282815181101515610f9657fe5b9060200190602002019060ff16908160ff16815250508080600101915050610f39565b508091505090565b600360009054906101000a900473ffffffffffffffffffffffffffffffffffffffff1673ffffffffffffffffffffffffffffffffffffffff163373ffffffffffffffffffffffffffffffffffffffff1614151561101d57600080fd5b6000600460008381526020019081526020016000205414151561103f57600080fd5b6000611049611461565b604051809103906000f080158015611065573d6000803e3d6000fd5b509050600160028290806001815401808255809150509060018203906000526020600020016000909192909190916101000a81548173ffffffffffffffffffffffffffffffffffffffff021916908373ffffffffffffffffffffffffffffffffffffffff16021790555003600460008481526020019081526020016000208190555060058290806001815401808255809150509060018203906000526020600020016000909192909190915055505050565b6060600580548060200260200160405190810160405280929190818152602001828054801561116557602002820191906000526020600020905b815481526020019060010190808311611151575b5050505050905090565b60008015156000803373ffffffffffffffffffffffffffffffffffffffff1673ffffffffffffffffffffffffffffffffffffffff16815260200190815260200160002060000160009054906101000a900460ff1615151480156111d6575060008260ff1610155b80156111e65750600a8260ff1611155b15156111f157600080fd5b60016000803373ffffffffffffffffffffffffffffffffffffffff1673ffffffffffffffffffffffffffffffffffffffff16815260200190815260200160002060000160006101000a81548160ff021916908315150217905550816000803373ffffffffffffffffffffffffffffffffffffffff1673ffffffffffffffffffffffffffffffffffffffff16815260200190815260200160002060000160016101000a81548160ff021916908360ff1602179055506001803390806001815401808255809150509060018203906000526020600020016000909192909190916101000a81548173ffffffffffffffffffffffffffffffffffffffff021916908373ffffffffffffffffffffffffffffffffffffffff160217905550039050919050565b60008061131e610c4d565b141561132d57600090506113bb565b600080905060008090505b611340610c4d565b81101561139d5761138960018281548110151561135957fe5b9060005260206000200160009054906101000a900473ffffffffffffffffffffffffffffffffffffffff166113be565b60ff16820191508080600101915050611338565b506113a6610c4d565b600a82028115156113b357fe5b049050809150505b90565b60008060008373ffffffffffffffffffffffffffffffffffffffff1673ffffffffffffffffffffffffffffffffffffffff16815260200190815260200160002060000160019054906101000a900460ff169050919050565b600061145a60018381548110151561142a57fe5b9060005260206000200160009054906101000a900473ffffffffffffffffffffffffffffffffffffffff166113be565b9050919050565b60405161082d806114728339019056fe608060405234801561001057600080fd5b5061080d806100206000396000f3fe60806040526004361061008e576000357c0100000000000000000000000000000000000000000000000000000000900463ffffffff16806352b72ade146100935780635da905f5146100ff5780636b9011351461012a578063a1a200c5146101a5578063ca0788c614610211578063e07d2e4e14610263578063e2aa1ef31461028e578063ed60b663146102f9575b600080fd5b34801561009f57600080fd5b506100a861034e565b6040518080602001828103825283818151815260200191508051906020019060200280838360005b838110156100eb5780820151818401526020810190506100d0565b505050509050019250505060405180910390f35b34801561010b57600080fd5b506101146103dc565b6040518082815260200191505060405180910390f35b34801561013657600080fd5b506101636004803603602081101561014d57600080fd5b81019080803590602001909291905050506103e9565b604051808273ffffffffffffffffffffffffffffffffffffffff1673ffffffffffffffffffffffffffffffffffffffff16815260200191505060405180910390f35b3480156101b157600080fd5b506101ba610427565b6040518080602001828103825283818151815260200191508051906020019060200280838360005b838110156101fd5780820151818401526020810190506101e2565b505050509050019250505060405180910390f35b34801561021d57600080fd5b5061024d6004803603602081101561023457600080fd5b81019080803560ff1690602001909291905050506104ef565b6040518082815260200191505060405180910390f35b34801561026f57600080fd5b50610278610693565b6040518082815260200191505060405180910390f35b34801561029a57600080fd5b506102dd600480360360208110156102b157600080fd5b81019080803573ffffffffffffffffffffffffffffffffffffffff16906020019092919050505061073e565b604051808260ff1660ff16815260200191505060405180910390f35b34801561030557600080fd5b506103326004803603602081101561031c57600080fd5b8101908080359060200190929190505050610796565b604051808260ff1660ff16815260200191505060405180910390f35b606060018054806020026020016040519081016040528092919081815260200182805480156103d257602002820191906000526020600020905b8160009054906101000a900473ffffffffffffffffffffffffffffffffffffffff1673ffffffffffffffffffffffffffffffffffffffff1681526020019060010190808311610388575b5050505050905090565b6000600180549050905090565b6001818154811015156103f857fe5b906000526020600020016000915054906101000a900473ffffffffffffffffffffffffffffffffffffffff1681565b60608060018054905060405190808252806020026020018201604052801561045e5781602001602082028038833980820191505090505b50905060008090505b6001805490508110156104e7576104b660018281548110151561048657fe5b9060005260206000200160009054906101000a900473ffffffffffffffffffffffffffffffffffffffff1661073e565b82828151811015156104c457fe5b9060200190602002019060ff16908160ff16815250508080600101915050610467565b508091505090565b60008015156000803373ffffffffffffffffffffffffffffffffffffffff1673ffffffffffffffffffffffffffffffffffffffff16815260200190815260200160002060000160009054906101000a900460ff161515148015610556575060008260ff1610155b80156105665750600a8260ff1611155b151561057157600080fd5b60016000803373ffffffffffffffffffffffffffffffffffffffff1673ffffffffffffffffffffffffffffffffffffffff16815260200190815260200160002060000160006101000a81548160ff021916908315150217905550816000803373ffffffffffffffffffffffffffffffffffffffff1673ffffffffffffffffffffffffffffffffffffffff16815260200190815260200160002060000160016101000a81548160ff021916908360ff1602179055506001803390806001815401808255809150509060018203906000526020600020016000909192909190916101000a81548173ffffffffffffffffffffffffffffffffffffffff021916908373ffffffffffffffffffffffffffffffffffffffff160217905550039050919050565b60008061069e6103dc565b14156106ad576000905061073b565b600080905060008090505b6106c06103dc565b81101561071d576107096001828154811015156106d957fe5b9060005260206000200160009054906101000a900473ffffffffffffffffffffffffffffffffffffffff1661073e565b60ff168201915080806001019150506106b8565b506107266103dc565b600a820281151561073357fe5b049050809150505b90565b60008060008373ffffffffffffffffffffffffffffffffffffffff1673ffffffffffffffffffffffffffffffffffffffff16815260200190815260200160002060000160019054906101000a900460ff169050919050565b60006107da6001838154811015156107aa57fe5b9060005260206000200160009054906101000a900473ffffffffffffffffffffffffffffffffffffffff1661073e565b905091905056fea165627a7a72305820eefac4c9e81280a7faed40688116096337dfebdb3e87ca363bd4c5ff507af1170029a165627a7a72305820f79ebcd9c99439a1cc2c7685660fa07308d8c42bbabd949497692bcc3438d6d90029608060405234801561001057600080fd5b5061080d806100206000396000f3fe60806040526004361061008e576000357c0100000000000000000000000000000000000000000000000000000000900463ffffffff16806352b72ade146100935780635da905f5146100ff5780636b9011351461012a578063a1a200c5146101a5578063ca0788c614610211578063e07d2e4e14610263578063e2aa1ef31461028e578063ed60b663146102f9575b600080fd5b34801561009f57600080fd5b506100a861034e565b6040518080602001828103825283818151815260200191508051906020019060200280838360005b838110156100eb5780820151818401526020810190506100d0565b505050509050019250505060405180910390f35b34801561010b57600080fd5b506101146103dc565b6040518082815260200191505060405180910390f35b34801561013657600080fd5b506101636004803603602081101561014d57600080fd5b81019080803590602001909291905050506103e9565b604051808273ffffffffffffffffffffffffffffffffffffffff1673ffffffffffffffffffffffffffffffffffffffff16815260200191505060405180910390f35b3480156101b157600080fd5b506101ba610427565b6040518080602001828103825283818151815260200191508051906020019060200280838360005b838110156101fd5780820151818401526020810190506101e2565b505050509050019250505060405180910390f35b34801561021d57600080fd5b5061024d6004803603602081101561023457600080fd5b81019080803560ff1690602001909291905050506104ef565b6040518082815260200191505060405180910390f35b34801561026f57600080fd5b50610278610693565b6040518082815260200191505060405180910390f35b34801561029a57600080fd5b506102dd600480360360208110156102b157600080fd5b81019080803573ffffffffffffffffffffffffffffffffffffffff16906020019092919050505061073e565b604051808260ff1660ff16815260200191505060405180910390f35b34801561030557600080fd5b506103326004803603602081101561031c57600080fd5b8101908080359060200190929190505050610796565b604051808260ff1660ff16815260200191505060405180910390f35b606060018054806020026020016040519081016040528092919081815260200182805480156103d257602002820191906000526020600020905b8160009054906101000a900473ffffffffffffffffffffffffffffffffffffffff1673ffffffffffffffffffffffffffffffffffffffff1681526020019060010190808311610388575b5050505050905090565b6000600180549050905090565b6001818154811015156103f857fe5b906000526020600020016000915054906101000a900473ffffffffffffffffffffffffffffffffffffffff1681565b60608060018054905060405190808252806020026020018201604052801561045e5781602001602082028038833980820191505090505b50905060008090505b6001805490508110156104e7576104b660018281548110151561048657fe5b9060005260206000200160009054906101000a900473ffffffffffffffffffffffffffffffffffffffff1661073e565b82828151811015156104c457fe5b9060200190602002019060ff16908160ff16815250508080600101915050610467565b508091505090565b60008015156000803373ffffffffffffffffffffffffffffffffffffffff1673ffffffffffffffffffffffffffffffffffffffff16815260200190815260200160002060000160009054906101000a900460ff161515148015610556575060008260ff1610155b80156105665750600a8260ff1611155b151561057157600080fd5b60016000803373ffffffffffffffffffffffffffffffffffffffff1673ffffffffffffffffffffffffffffffffffffffff16815260200190815260200160002060000160006101000a81548160ff021916908315150217905550816000803373ffffffffffffffffffffffffffffffffffffffff1673ffffffffffffffffffffffffffffffffffffffff16815260200190815260200160002060000160016101000a81548160ff021916908360ff1602179055506001803390806001815401808255809150509060018203906000526020600020016000909192909190916101000a81548173ffffffffffffffffffffffffffffffffffffffff021916908373ffffffffffffffffffffffffffffffffffffffff160217905550039050919050565b60008061069e6103dc565b14156106ad576000905061073b565b600080905060008090505b6106c06103dc565b81101561071d576107096001828154811015156106d957fe5b9060005260206000200160009054906101000a900473ffffffffffffffffffffffffffffffffffffffff1661073e565b60ff168201915080806001019150506106b8565b506107266103dc565b600a820281151561073357fe5b049050809150505b90565b60008060008373ffffffffffffffffffffffffffffffffffffffff1673ffffffffffffffffffffffffffffffffffffffff16815260200190815260200160002060000160019054906101000a900460ff169050919050565b60006107da6001838154811015156107aa57fe5b9060005260206000200160009054906101000a900473ffffffffffffffffffffffffffffffffffffffff1661073e565b905091905056fea165627a7a72305820eefac4c9e81280a7faed40688116096337dfebdb3e87ca363bd4c5ff507af1170029",
  "source": "pragma solidity ^0.5.0;\r\n\r\nimport \"./MovieRank.sol\"; \r\n\r\ncontract MovieRankFactory is MovieRank{\r\n\r\n    MovieRank[] public movieRankArray;\r\n\r\n    address owner = msg.sender;\r\n\r\n    modifier onlyOwner() {\r\n        require(msg.sender == owner);\r\n        _;\r\n    }\r\n\r\n    constructor() public { //movieRankArray'n 0 indexi kodda ok fazla skntya sebep olduu iin kullanlmayan\r\n        MovieRank movieRank = new MovieRank();//bir nesneyi array'e atadm\r\n        movieRankArray.push(movieRank);\r\n    }\r\n\r\n\r\n    mapping (uint => uint) public movieIdtoIndex;\r\n    uint[] public movieIdList;\r\n\r\n    function createMovieRankContract(uint _movieId) public onlyOwner()  {\r\n        require(movieIdtoIndex[_movieId]==0);\r\n        MovieRank movieRank = new MovieRank();\r\n        movieIdtoIndex[_movieId] = (movieRankArray.push(movieRank))-1;\r\n        movieIdList.push(_movieId);\r\n    }\r\n\r\n    function getMovieRank(uint _movieId) public view returns(MovieRank) { //movie id den MovieRank kontratn getiriyor\r\n        return MovieRank(address(movieRankArray[movieIdtoIndex[_movieId]]));\r\n    }\r\n\r\n\r\n    /*function mrfVote(uint _movieId, uint8 _rank) public returns(uint) {\r\n        require(movieIdtoIndex[_movieId]!=0);\r\n\r\n        return getMovieRank(_movieId).newRanking(_rank);\r\n    }*/\r\n\r\n    function mrfAverageRank(uint _movieId) public view returns(uint) {\r\n        return getMovieRank(_movieId).averageRank();\r\n    }\r\n\r\n    function mrfGetRankingCount(uint _movieId) public view returns(uint) {\r\n        return getMovieRank(_movieId).getRankingCount();\r\n    }\r\n\r\n    function mrfGetRankingByIndex(uint _movieId, uint _index) public view returns(uint) {\r\n        return getMovieRank(_movieId).getRankingByIndex(_index);\r\n    }\r\n\r\n    function mrfGetRankingAdressesList(uint _movieId) public view returns(address[] memory) {\r\n        return getMovieRank(_movieId).getRankingAddressList();\r\n    }\r\n\r\n    function mrfGetRankList(uint _movieId) public view returns(uint8[] memory) {\r\n        return getMovieRank(_movieId).getRankList();\r\n    }\r\n\r\n    function getMovieIdList() public view returns(uint[] memory) {\r\n        return movieIdList;\r\n    }\r\n\r\n    function getAllAverageRank() public view returns(uint[] memory) {//movieIdList'le eli ekilde film ortalamalarn listeler\r\n        uint[] memory temp = new uint[](movieIdList.length);\r\n        for(uint i = 0; i < movieIdList.length; i++) {\r\n            temp[i] = mrfAverageRank(movieIdList[i]);\r\n        }\r\n        return temp;\r\n    }\r\n\r\n\r\n\r\n    \r\n\r\n    \r\n   \r\n    \r\n\r\n}\r\n",
  "sourcePath": "C:\\Users\\eren_\\Documents\\demos\\temp\\webentity2fortruffle-2\\WebAPIDenemeEntity2\\truffle\\contracts\\MovieRankFactory.sol",
  "compiler": {
    "name": "solc",
    "version": "0.5.0+commit.1d4f565a.Emscripten.clang"
  },
  "schemaVersion": "3.4.7",
  "updatedAt": "2022-05-19T22:45:04.180Z",
  "devdoc": {
    "methods": {}
  },
  "userdoc": {
    "methods": {}
  }
}