{
  "contractName": "MovieRank",
  "abi": [
    {
      "constant": true,
      "inputs": [
        {
          "name": "",
          "type": "uint256"
        }
      ],
      "name": "rankingList",
      "outputs": [
        {
          "name": "",
          "type": "address"
        }
      ],
      "payable": false,
      "stateMutability": "view",
      "type": "function"
    },
    {
      "constant": true,
      "inputs": [],
      "name": "getRankingCount",
      "outputs": [
        {
          "name": "",
          "type": "uint256"
        }
      ],
      "payable": false,
      "stateMutability": "view",
      "type": "function"
    },
    {
      "constant": false,
      "inputs": [
        {
          "name": "_rank",
          "type": "uint8"
        }
      ],
      "name": "newRanking",
      "outputs": [
        {
          "name": "",
          "type": "uint256"
        }
      ],
      "payable": false,
      "stateMutability": "nonpayable",
      "type": "function"
    },
    {
      "constant": true,
      "inputs": [
        {
          "name": "_address",
          "type": "address"
        }
      ],
      "name": "getRanking",
      "outputs": [
        {
          "name": "",
          "type": "uint8"
        }
      ],
      "payable": false,
      "stateMutability": "view",
      "type": "function"
    },
    {
      "constant": true,
      "inputs": [
        {
          "name": "_index",
          "type": "uint256"
        }
      ],
      "name": "getRankingByIndex",
      "outputs": [
        {
          "name": "",
          "type": "uint8"
        }
      ],
      "payable": false,
      "stateMutability": "view",
      "type": "function"
    },
    {
      "constant": true,
      "inputs": [],
      "name": "getRankingAddressList",
      "outputs": [
        {
          "name": "",
          "type": "address[]"
        }
      ],
      "payable": false,
      "stateMutability": "view",
      "type": "function"
    },
    {
      "constant": true,
      "inputs": [],
      "name": "getRankList",
      "outputs": [
        {
          "name": "",
          "type": "uint8[]"
        }
      ],
      "payable": false,
      "stateMutability": "view",
      "type": "function"
    },
    {
      "constant": true,
      "inputs": [],
      "name": "averageRank",
      "outputs": [
        {
          "name": "",
          "type": "uint256"
        }
      ],
      "payable": false,
      "stateMutability": "view",
      "type": "function"
    }
  ],
  "bytecode": "0x608060405234801561001057600080fd5b5061080d806100206000396000f3fe60806040526004361061008e576000357c0100000000000000000000000000000000000000000000000000000000900463ffffffff16806352b72ade146100935780635da905f5146100ff5780636b9011351461012a578063a1a200c5146101a5578063ca0788c614610211578063e07d2e4e14610263578063e2aa1ef31461028e578063ed60b663146102f9575b600080fd5b34801561009f57600080fd5b506100a861034e565b6040518080602001828103825283818151815260200191508051906020019060200280838360005b838110156100eb5780820151818401526020810190506100d0565b505050509050019250505060405180910390f35b34801561010b57600080fd5b506101146103dc565b6040518082815260200191505060405180910390f35b34801561013657600080fd5b506101636004803603602081101561014d57600080fd5b81019080803590602001909291905050506103e9565b604051808273ffffffffffffffffffffffffffffffffffffffff1673ffffffffffffffffffffffffffffffffffffffff16815260200191505060405180910390f35b3480156101b157600080fd5b506101ba610427565b6040518080602001828103825283818151815260200191508051906020019060200280838360005b838110156101fd5780820151818401526020810190506101e2565b505050509050019250505060405180910390f35b34801561021d57600080fd5b5061024d6004803603602081101561023457600080fd5b81019080803560ff1690602001909291905050506104ef565b6040518082815260200191505060405180910390f35b34801561026f57600080fd5b50610278610693565b6040518082815260200191505060405180910390f35b34801561029a57600080fd5b506102dd600480360360208110156102b157600080fd5b81019080803573ffffffffffffffffffffffffffffffffffffffff16906020019092919050505061073e565b604051808260ff1660ff16815260200191505060405180910390f35b34801561030557600080fd5b506103326004803603602081101561031c57600080fd5b8101908080359060200190929190505050610796565b604051808260ff1660ff16815260200191505060405180910390f35b606060018054806020026020016040519081016040528092919081815260200182805480156103d257602002820191906000526020600020905b8160009054906101000a900473ffffffffffffffffffffffffffffffffffffffff1673ffffffffffffffffffffffffffffffffffffffff1681526020019060010190808311610388575b5050505050905090565b6000600180549050905090565b6001818154811015156103f857fe5b906000526020600020016000915054906101000a900473ffffffffffffffffffffffffffffffffffffffff1681565b60608060018054905060405190808252806020026020018201604052801561045e5781602001602082028038833980820191505090505b50905060008090505b6001805490508110156104e7576104b660018281548110151561048657fe5b9060005260206000200160009054906101000a900473ffffffffffffffffffffffffffffffffffffffff1661073e565b82828151811015156104c457fe5b9060200190602002019060ff16908160ff16815250508080600101915050610467565b508091505090565b60008015156000803373ffffffffffffffffffffffffffffffffffffffff1673ffffffffffffffffffffffffffffffffffffffff16815260200190815260200160002060000160009054906101000a900460ff161515148015610556575060008260ff1610155b80156105665750600a8260ff1611155b151561057157600080fd5b60016000803373ffffffffffffffffffffffffffffffffffffffff1673ffffffffffffffffffffffffffffffffffffffff16815260200190815260200160002060000160006101000a81548160ff021916908315150217905550816000803373ffffffffffffffffffffffffffffffffffffffff1673ffffffffffffffffffffffffffffffffffffffff16815260200190815260200160002060000160016101000a81548160ff021916908360ff1602179055506001803390806001815401808255809150509060018203906000526020600020016000909192909190916101000a81548173ffffffffffffffffffffffffffffffffffffffff021916908373ffffffffffffffffffffffffffffffffffffffff160217905550039050919050565b60008061069e6103dc565b14156106ad576000905061073b565b600080905060008090505b6106c06103dc565b81101561071d576107096001828154811015156106d957fe5b9060005260206000200160009054906101000a900473ffffffffffffffffffffffffffffffffffffffff1661073e565b60ff168201915080806001019150506106b8565b506107266103dc565b600a820281151561073357fe5b049050809150505b90565b60008060008373ffffffffffffffffffffffffffffffffffffffff1673ffffffffffffffffffffffffffffffffffffffff16815260200190815260200160002060000160019054906101000a900460ff169050919050565b60006107da6001838154811015156107aa57fe5b9060005260206000200160009054906101000a900473ffffffffffffffffffffffffffffffffffffffff1661073e565b905091905056fea165627a7a72305820eefac4c9e81280a7faed40688116096337dfebdb3e87ca363bd4c5ff507af1170029",
  "source": "pragma solidity ^0.5.0;\r\n\r\ncontract MovieRank{\r\n\r\n    struct MovieRanking{\r\n        bool isValid;\r\n        uint8 rank;\r\n    }\r\n\r\n\r\n     mapping (address => MovieRanking) private ranking;\r\n     address[] public rankingList;\r\n\r\n    function isValid(address _address) private view returns(bool) {\r\n         return ranking[_address].isValid;\r\n    }\r\n\r\n    function getRankingCount() public view returns(uint) {\r\n         return rankingList.length;\r\n    }\r\n\r\n    function newRanking(uint8 _rank) public returns(uint) {\r\n        require(ranking[msg.sender].isValid==false && _rank >=0 && _rank <= 10);\r\n        ranking[msg.sender].isValid = true;\r\n        ranking[msg.sender].rank = _rank;\r\n        return rankingList.push(msg.sender)-1;\r\n    }\r\n\r\n    function getRanking(address _address) public view returns(uint8) {\r\n        return ranking[_address].rank;\r\n    }\r\n\r\n    function getRankingByIndex(uint _index) public view returns(uint8) {\r\n        return getRanking(rankingList[_index]);\r\n    }\r\n\r\n    function getRankingAddressList() public view returns(address[] memory) {//oy veren adresleri döndürür\r\n        return rankingList;\r\n    }\r\n\r\n    function getRankList() public view returns(uint8[] memory) {//rankingList adresleriyle aynı sırada puanları geri döndürür\r\n        uint8[] memory temp = new uint8[](rankingList.length);\r\n        for(uint i = 0; i < rankingList.length; i++) {\r\n            temp[i] = getRanking(rankingList[i]);\r\n        }\r\n        return temp;\r\n    }\r\n\r\n    function averageRank() public view returns(uint) {\r\n        if(getRankingCount()==0) return 0;\r\n        else{\r\n            uint s = 0;\r\n            for(uint i=0; i<getRankingCount(); i++) {\r\n                s = s + getRanking(rankingList[i]);\r\n            }\r\n            s = (s*10)/getRankingCount();\r\n            return s; \r\n        }// 1 extra 0 || 35 means 3.5\r\n    }\r\n\r\n    \r\n\r\n    \r\n\r\n}",
  "sourcePath": "C:\\Users\\eren_\\Documents\\demos\\temp\\webentity2fortruffle-2\\WebAPIDenemeEntity2\\truffle\\contracts\\MovieRank.sol",
  "compiler": {
    "name": "solc",
    "version": "0.5.0+commit.1d4f565a.Emscripten.clang"
  },
  "schemaVersion": "3.4.7",
  "updatedAt": "2022-05-19T22:45:04.172Z",
  "devdoc": {
    "methods": {}
  },
  "userdoc": {
    "methods": {}
  }
}