{
  "contractName": "MovieRank",
  "abi": [
    {
      "constant": true,
      "inputs": [
        {
          "name": "",
          "type": "uint256"
        }
      ],
      "name": "rankingList",
      "outputs": [
        {
          "name": "",
          "type": "address"
        }
      ],
      "payable": false,
      "stateMutability": "view",
      "type": "function"
    },
    {
      "constant": false,
      "inputs": [
        {
          "name": "_rank",
          "type": "uint8"
        },
        {
          "name": "_sender",
          "type": "address"
        }
      ],
      "name": "newRanking",
      "outputs": [
        {
          "name": "",
          "type": "uint256"
        }
      ],
      "payable": false,
      "stateMutability": "nonpayable",
      "type": "function"
    },
    {
      "constant": true,
      "inputs": [],
      "name": "averageRank",
      "outputs": [
        {
          "name": "",
          "type": "uint256"
        }
      ],
      "payable": false,
      "stateMutability": "view",
      "type": "function"
    }
  ],
  "bytecode": "0x608060405234801561001057600080fd5b5061047a806100206000396000f3fe608060405260043610610057576000357c0100000000000000000000000000000000000000000000000000000000900463ffffffff1680636b9011351461005c57806397bf48a7146100d7578063e07d2e4e14610149575b600080fd5b34801561006857600080fd5b506100956004803603602081101561007f57600080fd5b8101908080359060200190929190505050610174565b604051808273ffffffffffffffffffffffffffffffffffffffff1673ffffffffffffffffffffffffffffffffffffffff16815260200191505060405180910390f35b3480156100e357600080fd5b50610133600480360360408110156100fa57600080fd5b81019080803560ff169060200190929190803573ffffffffffffffffffffffffffffffffffffffff1690602001909291905050506101b2565b6040518082815260200191505060405180910390f35b34801561015557600080fd5b5061015e610357565b6040518082815260200191505060405180910390f35b60018181548110151561018357fe5b906000526020600020016000915054906101000a900473ffffffffffffffffffffffffffffffffffffffff1681565b60008015156000808473ffffffffffffffffffffffffffffffffffffffff1673ffffffffffffffffffffffffffffffffffffffff16815260200190815260200160002060000160009054906101000a900460ff161515148015610219575060008360ff1610155b80156102295750600a8360ff1611155b151561023457600080fd5b60016000808473ffffffffffffffffffffffffffffffffffffffff1673ffffffffffffffffffffffffffffffffffffffff16815260200190815260200160002060000160006101000a81548160ff021916908315150217905550826000808473ffffffffffffffffffffffffffffffffffffffff1673ffffffffffffffffffffffffffffffffffffffff16815260200190815260200160002060000160016101000a81548160ff021916908360ff1602179055506001808390806001815401808255809150509060018203906000526020600020016000909192909190916101000a81548173ffffffffffffffffffffffffffffffffffffffff021916908373ffffffffffffffffffffffffffffffffffffffff16021790555003905092915050565b6000806000905060008090505b61036c6103e6565b8110156103c6576103b560018281548110151561038557fe5b9060005260206000200160009054906101000a900473ffffffffffffffffffffffffffffffffffffffff166103f3565b820191508080600101915050610364565b506103cf6103e6565b600a82028115156103dc57fe5b0490508091505090565b6000600180549050905090565b60008060008373ffffffffffffffffffffffffffffffffffffffff1673ffffffffffffffffffffffffffffffffffffffff16815260200190815260200160002060000160019054906101000a900460ff1660ff16905091905056fea165627a7a723058205aa6b2c2cd5a9708abaf3247cec650130a49dfc9a8a47ac84fa4b27533c93b910029",
  "source": "pragma solidity ^0.5.0;\r\n\r\ncontract MovieRank{\r\n\r\n    struct MovieRanking{\r\n        bool isValid;\r\n        uint8 rank;\r\n    }\r\n\r\n\r\n     mapping (address => MovieRanking) private ranking;\r\n     address[] public rankingList;\r\n\r\n     function isValid(address _address) private view returns(bool) {\r\n         return ranking[_address].isValid;\r\n     }\r\n\r\n     function getRankingCount() private view returns(uint) {\r\n         return rankingList.length;\r\n     }\r\n\r\n    function newRanking(uint8 _rank, address _sender) public   returns(uint) {\r\n        require(ranking[_sender].isValid==false && _rank >=0 && _rank <= 10);\r\n        ranking[_sender].isValid = true;\r\n        ranking[_sender].rank = _rank;\r\n        return rankingList.push(_sender)-1;\r\n    }\r\n\r\n    function getRanking(address _address) private view returns(uint) {\r\n        return ranking[_address].rank;\r\n    }\r\n\r\n    function averageRank() public view returns(uint) {\r\n        uint s = 0;\r\n        for(uint i=0; i<getRankingCount(); i++) {\r\n            s = s + getRanking(rankingList[i]);\r\n        }\r\n        s = (s*10)/getRankingCount();\r\n        return s; // 1 extra 0 || 35 means 3.5\r\n    }\r\n\r\n    \r\n\r\n}",
  "sourcePath": "C:\\Users\\eren_\\Documents\\demos\\temp\\webentity2fortruffle-2\\WebAPIDenemeEntity2\\truffle\\contracts\\MovieRank.sol",
  "compiler": {
    "name": "solc",
    "version": "0.5.0+commit.1d4f565a.Emscripten.clang"
  },
  "schemaVersion": "3.4.7",
  "updatedAt": "2022-05-06T09:08:30.807Z",
  "networkType": "ethereum",
  "devdoc": {
    "methods": {}
  },
  "userdoc": {
    "methods": {}
  }
}