{
  "contractName": "MovieRankFactory",
  "abi": [
    {
      "constant": true,
      "inputs": [
        {
          "name": "",
          "type": "uint256"
        }
      ],
      "name": "movieRankArray",
      "outputs": [
        {
          "name": "",
          "type": "address"
        }
      ],
      "payable": false,
      "stateMutability": "view",
      "type": "function"
    },
    {
      "constant": true,
      "inputs": [
        {
          "name": "",
          "type": "uint256"
        }
      ],
      "name": "movieIdtoIndex",
      "outputs": [
        {
          "name": "",
          "type": "uint256"
        }
      ],
      "payable": false,
      "stateMutability": "view",
      "type": "function"
    },
    {
      "constant": true,
      "inputs": [
        {
          "name": "",
          "type": "uint256"
        }
      ],
      "name": "rankingList",
      "outputs": [
        {
          "name": "",
          "type": "address"
        }
      ],
      "payable": false,
      "stateMutability": "view",
      "type": "function"
    },
    {
      "constant": false,
      "inputs": [
        {
          "name": "_rank",
          "type": "uint8"
        },
        {
          "name": "_sender",
          "type": "address"
        }
      ],
      "name": "newRanking",
      "outputs": [
        {
          "name": "",
          "type": "uint256"
        }
      ],
      "payable": false,
      "stateMutability": "nonpayable",
      "type": "function"
    },
    {
      "constant": true,
      "inputs": [],
      "name": "averageRank",
      "outputs": [
        {
          "name": "",
          "type": "uint256"
        }
      ],
      "payable": false,
      "stateMutability": "view",
      "type": "function"
    },
    {
      "inputs": [],
      "payable": false,
      "stateMutability": "nonpayable",
      "type": "constructor"
    },
    {
      "constant": false,
      "inputs": [
        {
          "name": "_movieId",
          "type": "uint256"
        }
      ],
      "name": "createMovieRankContract",
      "outputs": [],
      "payable": false,
      "stateMutability": "nonpayable",
      "type": "function"
    },
    {
      "constant": true,
      "inputs": [
        {
          "name": "_movieId",
          "type": "uint256"
        }
      ],
      "name": "getMovieRank",
      "outputs": [
        {
          "name": "",
          "type": "address"
        }
      ],
      "payable": false,
      "stateMutability": "view",
      "type": "function"
    },
    {
      "constant": false,
      "inputs": [
        {
          "name": "_movieId",
          "type": "uint256"
        },
        {
          "name": "_rank",
          "type": "uint8"
        }
      ],
      "name": "mrfVote",
      "outputs": [
        {
          "name": "",
          "type": "uint256"
        }
      ],
      "payable": false,
      "stateMutability": "nonpayable",
      "type": "function"
    },
    {
      "constant": true,
      "inputs": [
        {
          "name": "_movieId",
          "type": "uint256"
        }
      ],
      "name": "mrfAverageRank",
      "outputs": [
        {
          "name": "",
          "type": "uint256"
        }
      ],
      "payable": false,
      "stateMutability": "view",
      "type": "function"
    }
  ],
  "bytecode": "0x608060405234801561001057600080fd5b50600061001b6100a6565b604051809103906000f080158015610037573d6000803e3d6000fd5b50905060028190806001815401808255809150509060018203906000526020600020016000909192909190916101000a81548173ffffffffffffffffffffffffffffffffffffffff021916908373ffffffffffffffffffffffffffffffffffffffff16021790555050506100b6565b60405161049a80610fbb83390190565b610ef6806100c56000396000f3fe608060405260043610610099576000357c0100000000000000000000000000000000000000000000000000000000900463ffffffff16806305e351241461009e5780630b8c3a691461011957806311a5b9c4146101945780634ca9aa01146101e35780635b51b1911461023f5780636b9011351461028e57806397bf48a714610309578063bf022b2e1461037b578063e07d2e4e146103b6575b600080fd5b3480156100aa57600080fd5b506100d7600480360360208110156100c157600080fd5b81019080803590602001909291905050506103e1565b604051808273ffffffffffffffffffffffffffffffffffffffff1673ffffffffffffffffffffffffffffffffffffffff16815260200191505060405180910390f35b34801561012557600080fd5b506101526004803603602081101561013c57600080fd5b8101908080359060200190929190505050610437565b604051808273ffffffffffffffffffffffffffffffffffffffff1673ffffffffffffffffffffffffffffffffffffffff16815260200191505060405180910390f35b3480156101a057600080fd5b506101cd600480360360208110156101b757600080fd5b8101908080359060200190929190505050610475565b6040518082815260200191505060405180910390f35b3480156101ef57600080fd5b506102296004803603604081101561020657600080fd5b8101908080359060200190929190803560ff169060200190929190505050610523565b6040518082815260200191505060405180910390f35b34801561024b57600080fd5b506102786004803603602081101561026257600080fd5b8101908080359060200190929190505050610682565b6040518082815260200191505060405180910390f35b34801561029a57600080fd5b506102c7600480360360208110156102b157600080fd5b810190808035906020019092919050505061069a565b604051808273ffffffffffffffffffffffffffffffffffffffff1673ffffffffffffffffffffffffffffffffffffffff16815260200191505060405180910390f35b34801561031557600080fd5b506103656004803603604081101561032c57600080fd5b81019080803560ff169060200190929190803573ffffffffffffffffffffffffffffffffffffffff1690602001909291905050506106d8565b6040518082815260200191505060405180910390f35b34801561038757600080fd5b506103b46004803603602081101561039e57600080fd5b810190808035906020019092919050505061087d565b005b3480156103c257600080fd5b506103cb610929565b6040518082815260200191505060405180910390f35b60006002600360008481526020019081526020016000205481548110151561040557fe5b9060005260206000200160009054906101000a900473ffffffffffffffffffffffffffffffffffffffff169050919050565b60028181548110151561044657fe5b906000526020600020016000915054906101000a900473ffffffffffffffffffffffffffffffffffffffff1681565b6000610480826103e1565b73ffffffffffffffffffffffffffffffffffffffff1663e07d2e4e6040518163ffffffff167c010000000000000000000000000000000000000000000000000000000002815260040160206040518083038186803b1580156104e157600080fd5b505afa1580156104f5573d6000803e3d6000fd5b505050506040513d602081101561050b57600080fd5b81019080805190602001909291905050509050919050565b6000806003600085815260200190815260200160002054141561054a576105498361087d565b5b6002600360008581526020019081526020016000205481548110151561056c57fe5b9060005260206000200160009054906101000a900473ffffffffffffffffffffffffffffffffffffffff1673ffffffffffffffffffffffffffffffffffffffff166397bf48a783336040518363ffffffff167c0100000000000000000000000000000000000000000000000000000000028152600401808360ff1660ff1681526020018273ffffffffffffffffffffffffffffffffffffffff1673ffffffffffffffffffffffffffffffffffffffff16815260200192505050602060405180830381600087803b15801561063f57600080fd5b505af1158015610653573d6000803e3d6000fd5b505050506040513d602081101561066957600080fd5b8101908080519060200190929190505050905092915050565b60036020528060005260406000206000915090505481565b6001818154811015156106a957fe5b906000526020600020016000915054906101000a900473ffffffffffffffffffffffffffffffffffffffff1681565b60008015156000808473ffffffffffffffffffffffffffffffffffffffff1673ffffffffffffffffffffffffffffffffffffffff16815260200190815260200160002060000160009054906101000a900460ff16151514801561073f575060008360ff1610155b801561074f5750600a8360ff1611155b151561075a57600080fd5b60016000808473ffffffffffffffffffffffffffffffffffffffff1673ffffffffffffffffffffffffffffffffffffffff16815260200190815260200160002060000160006101000a81548160ff021916908315150217905550826000808473ffffffffffffffffffffffffffffffffffffffff1673ffffffffffffffffffffffffffffffffffffffff16815260200190815260200160002060000160016101000a81548160ff021916908360ff1602179055506001808390806001815401808255809150509060018203906000526020600020016000909192909190916101000a81548173ffffffffffffffffffffffffffffffffffffffff021916908373ffffffffffffffffffffffffffffffffffffffff16021790555003905092915050565b6000610887610a20565b604051809103906000f0801580156108a3573d6000803e3d6000fd5b509050600160028290806001815401808255809150509060018203906000526020600020016000909192909190916101000a81548173ffffffffffffffffffffffffffffffffffffffff021916908373ffffffffffffffffffffffffffffffffffffffff1602179055500360036000848152602001908152602001600020819055505050565b6000806000905060008090505b61093e6109b8565b8110156109985761098760018281548110151561095757fe5b9060005260206000200160009054906101000a900473ffffffffffffffffffffffffffffffffffffffff166109c5565b820191508080600101915050610936565b506109a16109b8565b600a82028115156109ae57fe5b0490508091505090565b6000600180549050905090565b60008060008373ffffffffffffffffffffffffffffffffffffffff1673ffffffffffffffffffffffffffffffffffffffff16815260200190815260200160002060000160019054906101000a900460ff1660ff169050919050565b60405161049a80610a318339019056fe608060405234801561001057600080fd5b5061047a806100206000396000f3fe608060405260043610610057576000357c0100000000000000000000000000000000000000000000000000000000900463ffffffff1680636b9011351461005c57806397bf48a7146100d7578063e07d2e4e14610149575b600080fd5b34801561006857600080fd5b506100956004803603602081101561007f57600080fd5b8101908080359060200190929190505050610174565b604051808273ffffffffffffffffffffffffffffffffffffffff1673ffffffffffffffffffffffffffffffffffffffff16815260200191505060405180910390f35b3480156100e357600080fd5b50610133600480360360408110156100fa57600080fd5b81019080803560ff169060200190929190803573ffffffffffffffffffffffffffffffffffffffff1690602001909291905050506101b2565b6040518082815260200191505060405180910390f35b34801561015557600080fd5b5061015e610357565b6040518082815260200191505060405180910390f35b60018181548110151561018357fe5b906000526020600020016000915054906101000a900473ffffffffffffffffffffffffffffffffffffffff1681565b60008015156000808473ffffffffffffffffffffffffffffffffffffffff1673ffffffffffffffffffffffffffffffffffffffff16815260200190815260200160002060000160009054906101000a900460ff161515148015610219575060008360ff1610155b80156102295750600a8360ff1611155b151561023457600080fd5b60016000808473ffffffffffffffffffffffffffffffffffffffff1673ffffffffffffffffffffffffffffffffffffffff16815260200190815260200160002060000160006101000a81548160ff021916908315150217905550826000808473ffffffffffffffffffffffffffffffffffffffff1673ffffffffffffffffffffffffffffffffffffffff16815260200190815260200160002060000160016101000a81548160ff021916908360ff1602179055506001808390806001815401808255809150509060018203906000526020600020016000909192909190916101000a81548173ffffffffffffffffffffffffffffffffffffffff021916908373ffffffffffffffffffffffffffffffffffffffff16021790555003905092915050565b6000806000905060008090505b61036c6103e6565b8110156103c6576103b560018281548110151561038557fe5b9060005260206000200160009054906101000a900473ffffffffffffffffffffffffffffffffffffffff166103f3565b820191508080600101915050610364565b506103cf6103e6565b600a82028115156103dc57fe5b0490508091505090565b6000600180549050905090565b60008060008373ffffffffffffffffffffffffffffffffffffffff1673ffffffffffffffffffffffffffffffffffffffff16815260200190815260200160002060000160019054906101000a900460ff1660ff16905091905056fea165627a7a723058205aa6b2c2cd5a9708abaf3247cec650130a49dfc9a8a47ac84fa4b27533c93b910029a165627a7a723058207387d820d1a67362c2109a876f26ec055f791cea8fdd1fc33fda4188c3a3ad020029608060405234801561001057600080fd5b5061047a806100206000396000f3fe608060405260043610610057576000357c0100000000000000000000000000000000000000000000000000000000900463ffffffff1680636b9011351461005c57806397bf48a7146100d7578063e07d2e4e14610149575b600080fd5b34801561006857600080fd5b506100956004803603602081101561007f57600080fd5b8101908080359060200190929190505050610174565b604051808273ffffffffffffffffffffffffffffffffffffffff1673ffffffffffffffffffffffffffffffffffffffff16815260200191505060405180910390f35b3480156100e357600080fd5b50610133600480360360408110156100fa57600080fd5b81019080803560ff169060200190929190803573ffffffffffffffffffffffffffffffffffffffff1690602001909291905050506101b2565b6040518082815260200191505060405180910390f35b34801561015557600080fd5b5061015e610357565b6040518082815260200191505060405180910390f35b60018181548110151561018357fe5b906000526020600020016000915054906101000a900473ffffffffffffffffffffffffffffffffffffffff1681565b60008015156000808473ffffffffffffffffffffffffffffffffffffffff1673ffffffffffffffffffffffffffffffffffffffff16815260200190815260200160002060000160009054906101000a900460ff161515148015610219575060008360ff1610155b80156102295750600a8360ff1611155b151561023457600080fd5b60016000808473ffffffffffffffffffffffffffffffffffffffff1673ffffffffffffffffffffffffffffffffffffffff16815260200190815260200160002060000160006101000a81548160ff021916908315150217905550826000808473ffffffffffffffffffffffffffffffffffffffff1673ffffffffffffffffffffffffffffffffffffffff16815260200190815260200160002060000160016101000a81548160ff021916908360ff1602179055506001808390806001815401808255809150509060018203906000526020600020016000909192909190916101000a81548173ffffffffffffffffffffffffffffffffffffffff021916908373ffffffffffffffffffffffffffffffffffffffff16021790555003905092915050565b6000806000905060008090505b61036c6103e6565b8110156103c6576103b560018281548110151561038557fe5b9060005260206000200160009054906101000a900473ffffffffffffffffffffffffffffffffffffffff166103f3565b820191508080600101915050610364565b506103cf6103e6565b600a82028115156103dc57fe5b0490508091505090565b6000600180549050905090565b60008060008373ffffffffffffffffffffffffffffffffffffffff1673ffffffffffffffffffffffffffffffffffffffff16815260200190815260200160002060000160019054906101000a900460ff1660ff16905091905056fea165627a7a723058205aa6b2c2cd5a9708abaf3247cec650130a49dfc9a8a47ac84fa4b27533c93b910029",
  "source": "pragma solidity ^0.5.0;\r\n\r\nimport \"./MovieRank.sol\"; \r\n\r\ncontract MovieRankFactory is MovieRank{\r\n\r\n    MovieRank[] public movieRankArray;\r\n\r\n     constructor() public { //movieRankArray'ın 0 indexi kodda çok fazla sıkıntıya sebep olduğu için kullanılmayan\r\n        MovieRank movieRank = new MovieRank();//bir nesneyi array'e atadım\r\n        movieRankArray.push(movieRank);\r\n     }\r\n\r\n\r\n    mapping (uint => uint) public movieIdtoIndex;\r\n\r\n    function createMovieRankContract(uint _movieId) public{\r\n        MovieRank movieRank = new MovieRank();\r\n        movieIdtoIndex[_movieId] = (movieRankArray.push(movieRank))-1;\r\n    }\r\n\r\n    function getMovieRank(uint _movieId) public view returns(MovieRank) {\r\n        return MovieRank(address(movieRankArray[movieIdtoIndex[_movieId]]));\r\n    }\r\n\r\n\r\n    function mrfVote(uint _movieId, uint8 _rank) public returns(uint) {\r\n        if(movieIdtoIndex[_movieId]==0 ) {\r\n            createMovieRankContract(_movieId);\r\n        }\r\n\r\n        return MovieRank(address(movieRankArray[movieIdtoIndex[_movieId]])).newRanking(_rank, msg.sender);\r\n    }\r\n\r\n    function mrfAverageRank(uint _movieId) public view returns(uint) {\r\n        return getMovieRank(_movieId).averageRank();\r\n    }\r\n\r\n    \r\n   \r\n    \r\n\r\n}\r\n",
  "sourcePath": "C:\\Users\\eren_\\Documents\\demos\\temp\\webentity2fortruffle-2\\WebAPIDenemeEntity2\\truffle\\contracts\\MovieRankFactory.sol",
  "compiler": {
    "name": "solc",
    "version": "0.5.0+commit.1d4f565a.Emscripten.clang"
  },
  "schemaVersion": "3.4.7",
  "updatedAt": "2022-05-06T09:08:30.823Z",
  "networkType": "ethereum",
  "devdoc": {
    "methods": {}
  },
  "userdoc": {
    "methods": {}
  }
}