{
  "contractName": "MovieRank_2",
  "abi": [
    {
      "constant": true,
      "inputs": [
        {
          "name": "",
          "type": "uint256"
        }
      ],
      "name": "rankingList",
      "outputs": [
        {
          "name": "",
          "type": "address"
        }
      ],
      "payable": false,
      "stateMutability": "view",
      "type": "function"
    },
    {
      "constant": true,
      "inputs": [
        {
          "name": "_address",
          "type": "address"
        }
      ],
      "name": "isValid",
      "outputs": [
        {
          "name": "",
          "type": "bool"
        }
      ],
      "payable": false,
      "stateMutability": "view",
      "type": "function"
    },
    {
      "constant": true,
      "inputs": [],
      "name": "getRankingCount",
      "outputs": [
        {
          "name": "",
          "type": "uint256"
        }
      ],
      "payable": false,
      "stateMutability": "view",
      "type": "function"
    },
    {
      "constant": false,
      "inputs": [
        {
          "name": "_rank",
          "type": "uint8"
        },
        {
          "name": "_sender",
          "type": "address"
        }
      ],
      "name": "newRanking",
      "outputs": [
        {
          "name": "",
          "type": "uint256"
        }
      ],
      "payable": false,
      "stateMutability": "nonpayable",
      "type": "function"
    },
    {
      "constant": true,
      "inputs": [
        {
          "name": "_address",
          "type": "address"
        }
      ],
      "name": "getRanking",
      "outputs": [
        {
          "name": "",
          "type": "uint256"
        }
      ],
      "payable": false,
      "stateMutability": "view",
      "type": "function"
    },
    {
      "constant": true,
      "inputs": [],
      "name": "averageRank",
      "outputs": [
        {
          "name": "",
          "type": "uint256"
        }
      ],
      "payable": false,
      "stateMutability": "view",
      "type": "function"
    }
  ],
  "bytecode": "0x608060405234801561001057600080fd5b506105ec806100206000396000f3fe608060405260043610610078576000357c0100000000000000000000000000000000000000000000000000000000900463ffffffff1680635da905f51461007d5780636b901135146100a85780638b1b925f1461012357806397bf48a71461018c578063e07d2e4e146101fe578063e2aa1ef314610229575b600080fd5b34801561008957600080fd5b5061009261028e565b6040518082815260200191505060405180910390f35b3480156100b457600080fd5b506100e1600480360360208110156100cb57600080fd5b810190808035906020019092919050505061029b565b604051808273ffffffffffffffffffffffffffffffffffffffff1673ffffffffffffffffffffffffffffffffffffffff16815260200191505060405180910390f35b34801561012f57600080fd5b506101726004803603602081101561014657600080fd5b81019080803573ffffffffffffffffffffffffffffffffffffffff1690602001909291905050506102d9565b604051808215151515815260200191505060405180910390f35b34801561019857600080fd5b506101e8600480360360408110156101af57600080fd5b81019080803560ff169060200190929190803573ffffffffffffffffffffffffffffffffffffffff169060200190929190505050610331565b6040518082815260200191505060405180910390f35b34801561020a57600080fd5b506102136104d6565b6040518082815260200191505060405180910390f35b34801561023557600080fd5b506102786004803603602081101561024c57600080fd5b81019080803573ffffffffffffffffffffffffffffffffffffffff169060200190929190505050610565565b6040518082815260200191505060405180910390f35b6000600180549050905090565b6001818154811015156102aa57fe5b906000526020600020016000915054906101000a900473ffffffffffffffffffffffffffffffffffffffff1681565b60008060008373ffffffffffffffffffffffffffffffffffffffff1673ffffffffffffffffffffffffffffffffffffffff16815260200190815260200160002060000160009054906101000a900460ff169050919050565b60008015156000808473ffffffffffffffffffffffffffffffffffffffff1673ffffffffffffffffffffffffffffffffffffffff16815260200190815260200160002060000160009054906101000a900460ff161515148015610398575060008360ff1610155b80156103a85750600a8360ff1611155b15156103b357600080fd5b60016000808473ffffffffffffffffffffffffffffffffffffffff1673ffffffffffffffffffffffffffffffffffffffff16815260200190815260200160002060000160006101000a81548160ff021916908315150217905550826000808473ffffffffffffffffffffffffffffffffffffffff1673ffffffffffffffffffffffffffffffffffffffff16815260200190815260200160002060000160016101000a81548160ff021916908360ff1602179055506001808390806001815401808255809150509060018203906000526020600020016000909192909190916101000a81548173ffffffffffffffffffffffffffffffffffffffff021916908373ffffffffffffffffffffffffffffffffffffffff16021790555003905092915050565b6000806000905060008090505b6104eb61028e565b8110156105455761053460018281548110151561050457fe5b9060005260206000200160009054906101000a900473ffffffffffffffffffffffffffffffffffffffff16610565565b8201915080806001019150506104e3565b5061054e61028e565b600a820281151561055b57fe5b0490508091505090565b60008060008373ffffffffffffffffffffffffffffffffffffffff1673ffffffffffffffffffffffffffffffffffffffff16815260200190815260200160002060000160019054906101000a900460ff1660ff16905091905056fea165627a7a7230582090279e3d8af8605896964a2768d32f9898f8269e960befb8a2eac76863909b2c0029",
  "source": "pragma solidity ^0.5.0;\r\n\r\ncontract MovieRank_2{\r\n\r\n    struct MovieRanking{\r\n        bool isValid;\r\n        uint8 rank;\r\n    }\r\n    \r\n\r\n     mapping (address => MovieRanking) private ranking;\r\n     address[] public rankingList;\r\n\r\n     function isValid(address _address) public view returns(bool) {\r\n         return ranking[_address].isValid;\r\n     }\r\n\r\n     function getRankingCount() public view returns(uint) {\r\n         return rankingList.length;\r\n     }\r\n\r\n    function newRanking(uint8 _rank, address _sender) public   returns(uint) {\r\n        require(ranking[_sender].isValid==false && _rank >=0 && _rank <= 10);\r\n        ranking[_sender].isValid = true;\r\n        ranking[_sender].rank = _rank;\r\n        return rankingList.push(_sender)-1;\r\n    }\r\n\r\n    function getRanking(address _address) public view returns(uint) {\r\n        return ranking[_address].rank;\r\n    }\r\n\r\n    function averageRank() public view returns(uint) {\r\n        uint s = 0;\r\n        for(uint i=0; i<getRankingCount(); i++) {\r\n            s = s + getRanking(rankingList[i]);\r\n        }\r\n        s = (s*10)/getRankingCount();\r\n        return s; // 1 extra 0 || 35 means 3.5\r\n    }\r\n\r\n    \r\n\r\n}",
  "sourcePath": "C:\\Users\\eren_\\Documents\\demos\\temp\\webentity2fortruffle-2\\WebAPIDenemeEntity2\\truffle\\contracts\\MovieRank_2.sol",
  "compiler": {
    "name": "solc",
    "version": "0.5.0+commit.1d4f565a.Emscripten.clang"
  },
  "schemaVersion": "3.4.7",
  "updatedAt": "2022-05-06T09:08:30.814Z",
  "networkType": "ethereum",
  "devdoc": {
    "methods": {}
  },
  "userdoc": {
    "methods": {}
  }
}