{
  "contractName": "MovieRankFactory",
  "abi": [
    {
      "constant": true,
      "inputs": [
        {
          "name": "",
          "type": "uint256"
        }
      ],
      "name": "movieRankArray",
      "outputs": [
        {
          "name": "",
          "type": "address"
        }
      ],
      "payable": false,
      "stateMutability": "view",
      "type": "function"
    },
    {
      "constant": true,
      "inputs": [
        {
          "name": "",
          "type": "uint256"
        }
      ],
      "name": "movieIdList",
      "outputs": [
        {
          "name": "",
          "type": "uint256"
        }
      ],
      "payable": false,
      "stateMutability": "view",
      "type": "function"
    },
    {
      "constant": true,
      "inputs": [],
      "name": "getRankingAddressList",
      "outputs": [
        {
          "name": "",
          "type": "address[]"
        }
      ],
      "payable": false,
      "stateMutability": "view",
      "type": "function"
    },
    {
      "constant": true,
      "inputs": [
        {
          "name": "",
          "type": "uint256"
        }
      ],
      "name": "movieIdtoIndex",
      "outputs": [
        {
          "name": "",
          "type": "uint256"
        }
      ],
      "payable": false,
      "stateMutability": "view",
      "type": "function"
    },
    {
      "constant": true,
      "inputs": [],
      "name": "getRankingCount",
      "outputs": [
        {
          "name": "",
          "type": "uint256"
        }
      ],
      "payable": false,
      "stateMutability": "view",
      "type": "function"
    },
    {
      "constant": true,
      "inputs": [
        {
          "name": "",
          "type": "uint256"
        }
      ],
      "name": "rankingList",
      "outputs": [
        {
          "name": "",
          "type": "address"
        }
      ],
      "payable": false,
      "stateMutability": "view",
      "type": "function"
    },
    {
      "constant": true,
      "inputs": [],
      "name": "impl",
      "outputs": [
        {
          "name": "",
          "type": "address"
        }
      ],
      "payable": false,
      "stateMutability": "view",
      "type": "function"
    },
    {
      "constant": true,
      "inputs": [],
      "name": "getRankList",
      "outputs": [
        {
          "name": "",
          "type": "uint8[]"
        }
      ],
      "payable": false,
      "stateMutability": "view",
      "type": "function"
    },
    {
      "constant": false,
      "inputs": [
        {
          "name": "_rank",
          "type": "uint8"
        }
      ],
      "name": "newRanking",
      "outputs": [
        {
          "name": "",
          "type": "uint256"
        }
      ],
      "payable": false,
      "stateMutability": "nonpayable",
      "type": "function"
    },
    {
      "constant": true,
      "inputs": [],
      "name": "averageRank",
      "outputs": [
        {
          "name": "",
          "type": "uint256"
        }
      ],
      "payable": false,
      "stateMutability": "view",
      "type": "function"
    },
    {
      "constant": true,
      "inputs": [
        {
          "name": "_address",
          "type": "address"
        }
      ],
      "name": "getRanking",
      "outputs": [
        {
          "name": "",
          "type": "uint8"
        }
      ],
      "payable": false,
      "stateMutability": "view",
      "type": "function"
    },
    {
      "constant": true,
      "inputs": [
        {
          "name": "_index",
          "type": "uint256"
        }
      ],
      "name": "getRankingByIndex",
      "outputs": [
        {
          "name": "",
          "type": "uint8"
        }
      ],
      "payable": false,
      "stateMutability": "view",
      "type": "function"
    },
    {
      "inputs": [
        {
          "name": "_impl",
          "type": "address"
        }
      ],
      "payable": false,
      "stateMutability": "nonpayable",
      "type": "constructor"
    },
    {
      "constant": false,
      "inputs": [
        {
          "name": "_movieId",
          "type": "uint256"
        }
      ],
      "name": "createMovieRankContract",
      "outputs": [],
      "payable": false,
      "stateMutability": "nonpayable",
      "type": "function"
    },
    {
      "constant": true,
      "inputs": [
        {
          "name": "_movieId",
          "type": "uint256"
        }
      ],
      "name": "getMovieRank",
      "outputs": [
        {
          "name": "",
          "type": "address"
        }
      ],
      "payable": false,
      "stateMutability": "view",
      "type": "function"
    },
    {
      "constant": true,
      "inputs": [
        {
          "name": "_movieId",
          "type": "uint256"
        }
      ],
      "name": "mrfAverageRank",
      "outputs": [
        {
          "name": "",
          "type": "uint256"
        }
      ],
      "payable": false,
      "stateMutability": "view",
      "type": "function"
    },
    {
      "constant": true,
      "inputs": [
        {
          "name": "_movieId",
          "type": "uint256"
        }
      ],
      "name": "mrfGetRankingCount",
      "outputs": [
        {
          "name": "",
          "type": "uint256"
        }
      ],
      "payable": false,
      "stateMutability": "view",
      "type": "function"
    },
    {
      "constant": true,
      "inputs": [
        {
          "name": "_movieId",
          "type": "uint256"
        },
        {
          "name": "_index",
          "type": "uint256"
        }
      ],
      "name": "mrfGetRankingByIndex",
      "outputs": [
        {
          "name": "",
          "type": "uint256"
        }
      ],
      "payable": false,
      "stateMutability": "view",
      "type": "function"
    },
    {
      "constant": true,
      "inputs": [
        {
          "name": "_movieId",
          "type": "uint256"
        }
      ],
      "name": "mrfGetRankingAdressesList",
      "outputs": [
        {
          "name": "",
          "type": "address[]"
        }
      ],
      "payable": false,
      "stateMutability": "view",
      "type": "function"
    },
    {
      "constant": true,
      "inputs": [
        {
          "name": "_movieId",
          "type": "uint256"
        }
      ],
      "name": "mrfGetRankList",
      "outputs": [
        {
          "name": "",
          "type": "uint8[]"
        }
      ],
      "payable": false,
      "stateMutability": "view",
      "type": "function"
    },
    {
      "constant": true,
      "inputs": [],
      "name": "getMovieIdList",
      "outputs": [
        {
          "name": "",
          "type": "uint256[]"
        }
      ],
      "payable": false,
      "stateMutability": "view",
      "type": "function"
    },
    {
      "constant": true,
      "inputs": [],
      "name": "getAllAverageRank",
      "outputs": [
        {
          "name": "",
          "type": "uint256[]"
        }
      ],
      "payable": false,
      "stateMutability": "view",
      "type": "function"
    }
  ],
  "bytecode": "0x608060405233600460006101000a81548173ffffffffffffffffffffffffffffffffffffffff021916908373ffffffffffffffffffffffffffffffffffffffff16021790555034801561005157600080fd5b50604051602080611f368339810180604052602081101561007157600080fd5b8101908080519060200190929190505050600061008c610159565b604051809103906000f0801580156100a8573d6000803e3d6000fd5b50905081600360006101000a81548173ffffffffffffffffffffffffffffffffffffffff021916908373ffffffffffffffffffffffffffffffffffffffff16021790555060028190806001815401808255809150509060018203906000526020600020016000909192909190916101000a81548173ffffffffffffffffffffffffffffffffffffffff021916908373ffffffffffffffffffffffffffffffffffffffff160217905550505050610169565b60405161082d8061170983390190565b611591806101786000396000f3fe60806040526004361061011d576000357c0100000000000000000000000000000000000000000000000000000000900463ffffffff16806305e35124146101225780630b8c3a691461019d57806311a5b9c4146102185780631eafe6911461026757806336ef4bb1146102b657806352b72ade1461030557806354d4e0d4146103715780635b51b191146104015780635da905f5146104505780636b9011351461047b5780637245e9da146104f65780637916a6751461054f5780638abf6077146105bb578063970fd42a14610612578063a1a200c5146106a2578063bf022b2e1461070e578063c466df5014610749578063ca0788c6146107b5578063e07d2e4e14610807578063e2aa1ef314610832578063ed60b6631461089d575b600080fd5b34801561012e57600080fd5b5061015b6004803603602081101561014557600080fd5b81019080803590602001909291905050506108f2565b604051808273ffffffffffffffffffffffffffffffffffffffff1673ffffffffffffffffffffffffffffffffffffffff16815260200191505060405180910390f35b3480156101a957600080fd5b506101d6600480360360208110156101c057600080fd5b8101908080359060200190929190505050610948565b604051808273ffffffffffffffffffffffffffffffffffffffff1673ffffffffffffffffffffffffffffffffffffffff16815260200191505060405180910390f35b34801561022457600080fd5b506102516004803603602081101561023b57600080fd5b8101908080359060200190929190505050610986565b6040518082815260200191505060405180910390f35b34801561027357600080fd5b506102a06004803603602081101561028a57600080fd5b8101908080359060200190929190505050610a34565b6040518082815260200191505060405180910390f35b3480156102c257600080fd5b506102ef600480360360208110156102d957600080fd5b8101908080359060200190929190505050610a57565b6040518082815260200191505060405180910390f35b34801561031157600080fd5b5061031a610b05565b6040518080602001828103825283818151815260200191508051906020019060200280838360005b8381101561035d578082015181840152602081019050610342565b505050509050019250505060405180910390f35b34801561037d57600080fd5b506103aa6004803603602081101561039457600080fd5b8101908080359060200190929190505050610b93565b6040518080602001828103825283818151815260200191508051906020019060200280838360005b838110156103ed5780820151818401526020810190506103d2565b505050509050019250505060405180910390f35b34801561040d57600080fd5b5061043a6004803603602081101561042457600080fd5b8101908080359060200190929190505050610c97565b6040518082815260200191505060405180910390f35b34801561045c57600080fd5b50610465610caf565b6040518082815260200191505060405180910390f35b34801561048757600080fd5b506104b46004803603602081101561049e57600080fd5b8101908080359060200190929190505050610cbc565b604051808273ffffffffffffffffffffffffffffffffffffffff1673ffffffffffffffffffffffffffffffffffffffff16815260200191505060405180910390f35b34801561050257600080fd5b506105396004803603604081101561051957600080fd5b810190808035906020019092919080359060200190929190505050610cfa565b6040518082815260200191505060405180910390f35b34801561055b57600080fd5b50610564610db7565b6040518080602001828103825283818151815260200191508051906020019060200280838360005b838110156105a757808201518184015260208101905061058c565b505050509050019250505060405180910390f35b3480156105c757600080fd5b506105d0610e57565b604051808273ffffffffffffffffffffffffffffffffffffffff1673ffffffffffffffffffffffffffffffffffffffff16815260200191505060405180910390f35b34801561061e57600080fd5b5061064b6004803603602081101561063557600080fd5b8101908080359060200190929190505050610e7d565b6040518080602001828103825283818151815260200191508051906020019060200280838360005b8381101561068e578082015181840152602081019050610673565b505050509050019250505060405180910390f35b3480156106ae57600080fd5b506106b7610f81565b6040518080602001828103825283818151815260200191508051906020019060200280838360005b838110156106fa5780820151818401526020810190506106df565b505050509050019250505060405180910390f35b34801561071a57600080fd5b506107476004803603602081101561073157600080fd5b8101908080359060200190929190505050611049565b005b34801561075557600080fd5b5061075e6111a5565b6040518080602001828103825283818151815260200191508051906020019060200280838360005b838110156107a1578082015181840152602081019050610786565b505050509050019250505060405180910390f35b3480156107c157600080fd5b506107f1600480360360208110156107d857600080fd5b81019080803560ff1690602001909291905050506111fd565b6040518082815260200191505060405180910390f35b34801561081357600080fd5b5061081c6113a1565b6040518082815260200191505060405180910390f35b34801561083e57600080fd5b506108816004803603602081101561085557600080fd5b81019080803573ffffffffffffffffffffffffffffffffffffffff16906020019092919050505061144c565b604051808260ff1660ff16815260200191505060405180910390f35b3480156108a957600080fd5b506108d6600480360360208110156108c057600080fd5b81019080803590602001909291905050506114a4565b604051808260ff1660ff16815260200191505060405180910390f35b60006002600560008481526020019081526020016000205481548110151561091657fe5b9060005260206000200160009054906101000a900473ffffffffffffffffffffffffffffffffffffffff169050919050565b60028181548110151561095757fe5b906000526020600020016000915054906101000a900473ffffffffffffffffffffffffffffffffffffffff1681565b6000610991826108f2565b73ffffffffffffffffffffffffffffffffffffffff1663e07d2e4e6040518163ffffffff167c010000000000000000000000000000000000000000000000000000000002815260040160206040518083038186803b1580156109f257600080fd5b505afa158015610a06573d6000803e3d6000fd5b505050506040513d6020811015610a1c57600080fd5b81019080805190602001909291905050509050919050565b600681815481101515610a4357fe5b906000526020600020016000915090505481565b6000610a62826108f2565b73ffffffffffffffffffffffffffffffffffffffff16635da905f56040518163ffffffff167c010000000000000000000000000000000000000000000000000000000002815260040160206040518083038186803b158015610ac357600080fd5b505afa158015610ad7573d6000803e3d6000fd5b505050506040513d6020811015610aed57600080fd5b81019080805190602001909291905050509050919050565b60606001805480602002602001604051908101604052809291908181526020018280548015610b8957602002820191906000526020600020905b8160009054906101000a900473ffffffffffffffffffffffffffffffffffffffff1673ffffffffffffffffffffffffffffffffffffffff1681526020019060010190808311610b3f575b5050505050905090565b6060610b9e826108f2565b73ffffffffffffffffffffffffffffffffffffffff1663a1a200c56040518163ffffffff167c010000000000000000000000000000000000000000000000000000000002815260040160006040518083038186803b158015610bff57600080fd5b505afa158015610c13573d6000803e3d6000fd5b505050506040513d6000823e3d601f19601f820116820180604052506020811015610c3d57600080fd5b810190808051640100000000811115610c5557600080fd5b82810190506020810184811115610c6b57600080fd5b8151856020820283011164010000000082111715610c8857600080fd5b50509291905050509050919050565b60056020528060005260406000206000915090505481565b6000600180549050905090565b600181815481101515610ccb57fe5b906000526020600020016000915054906101000a900473ffffffffffffffffffffffffffffffffffffffff1681565b6000610d05836108f2565b73ffffffffffffffffffffffffffffffffffffffff1663ed60b663836040518263ffffffff167c01000000000000000000000000000000000000000000000000000000000281526004018082815260200191505060206040518083038186803b158015610d7157600080fd5b505afa158015610d85573d6000803e3d6000fd5b505050506040513d6020811015610d9b57600080fd5b810190808051906020019092919050505060ff16905092915050565b606080600680549050604051908082528060200260200182016040528015610dee5781602001602082028038833980820191505090505b50905060008090505b600680549050811015610e4f57610e26600682815481101515610e1657fe5b9060005260206000200154610986565b8282815181101515610e3457fe5b90602001906020020181815250508080600101915050610df7565b508091505090565b600360009054906101000a900473ffffffffffffffffffffffffffffffffffffffff1681565b6060610e88826108f2565b73ffffffffffffffffffffffffffffffffffffffff166352b72ade6040518163ffffffff167c010000000000000000000000000000000000000000000000000000000002815260040160006040518083038186803b158015610ee957600080fd5b505afa158015610efd573d6000803e3d6000fd5b505050506040513d6000823e3d601f19601f820116820180604052506020811015610f2757600080fd5b810190808051640100000000811115610f3f57600080fd5b82810190506020810184811115610f5557600080fd5b8151856020820283011164010000000082111715610f7257600080fd5b50509291905050509050919050565b606080600180549050604051908082528060200260200182016040528015610fb85781602001602082028038833980820191505090505b50905060008090505b60018054905081101561104157611010600182815481101515610fe057fe5b9060005260206000200160009054906101000a900473ffffffffffffffffffffffffffffffffffffffff1661144c565b828281518110151561101e57fe5b9060200190602002019060ff16908160ff16815250508080600101915050610fc1565b508091505090565b600460009054906101000a900473ffffffffffffffffffffffffffffffffffffffff1673ffffffffffffffffffffffffffffffffffffffff163373ffffffffffffffffffffffffffffffffffffffff161415156110a557600080fd5b600060056000838152602001908152602001600020541415156110c757600080fd5b60006110f4600360009054906101000a900473ffffffffffffffffffffffffffffffffffffffff166114ef565b9050600160028290806001815401808255809150509060018203906000526020600020016000909192909190916101000a81548173ffffffffffffffffffffffffffffffffffffffff021916908373ffffffffffffffffffffffffffffffffffffffff16021790555003600560008481526020019081526020016000208190555060068290806001815401808255809150509060018203906000526020600020016000909192909190915055505050565b606060068054806020026020016040519081016040528092919081815260200182805480156111f357602002820191906000526020600020905b8154815260200190600101908083116111df575b5050505050905090565b60008015156000803373ffffffffffffffffffffffffffffffffffffffff1673ffffffffffffffffffffffffffffffffffffffff16815260200190815260200160002060000160009054906101000a900460ff161515148015611264575060008260ff1610155b80156112745750600a8260ff1611155b151561127f57600080fd5b60016000803373ffffffffffffffffffffffffffffffffffffffff1673ffffffffffffffffffffffffffffffffffffffff16815260200190815260200160002060000160006101000a81548160ff021916908315150217905550816000803373ffffffffffffffffffffffffffffffffffffffff1673ffffffffffffffffffffffffffffffffffffffff16815260200190815260200160002060000160016101000a81548160ff021916908360ff1602179055506001803390806001815401808255809150509060018203906000526020600020016000909192909190916101000a81548173ffffffffffffffffffffffffffffffffffffffff021916908373ffffffffffffffffffffffffffffffffffffffff160217905550039050919050565b6000806113ac610caf565b14156113bb5760009050611449565b600080905060008090505b6113ce610caf565b81101561142b576114176001828154811015156113e757fe5b9060005260206000200160009054906101000a900473ffffffffffffffffffffffffffffffffffffffff1661144c565b60ff168201915080806001019150506113c6565b50611434610caf565b600a820281151561144157fe5b049050809150505b90565b60008060008373ffffffffffffffffffffffffffffffffffffffff1673ffffffffffffffffffffffffffffffffffffffff16815260200190815260200160002060000160019054906101000a900460ff169050919050565b60006114e86001838154811015156114b857fe5b9060005260206000200160009054906101000a900473ffffffffffffffffffffffffffffffffffffffff1661144c565b9050919050565b600080826c010000000000000000000000000290506040517f3d602d80600a3d3981f3363d3d373d3d3d363d7300000000000000000000000081528160148201527f5af43d82803e903d91602b57fd5bf3000000000000000000000000000000000060288201526037816000f09250505091905056fea165627a7a723058202eee1cb6870ec135af4d72979059bf7674a1d7cddf8f4f3847bfabc99024b81a0029608060405234801561001057600080fd5b5061080d806100206000396000f3fe60806040526004361061008e576000357c0100000000000000000000000000000000000000000000000000000000900463ffffffff16806352b72ade146100935780635da905f5146100ff5780636b9011351461012a578063a1a200c5146101a5578063ca0788c614610211578063e07d2e4e14610263578063e2aa1ef31461028e578063ed60b663146102f9575b600080fd5b34801561009f57600080fd5b506100a861034e565b6040518080602001828103825283818151815260200191508051906020019060200280838360005b838110156100eb5780820151818401526020810190506100d0565b505050509050019250505060405180910390f35b34801561010b57600080fd5b506101146103dc565b6040518082815260200191505060405180910390f35b34801561013657600080fd5b506101636004803603602081101561014d57600080fd5b81019080803590602001909291905050506103e9565b604051808273ffffffffffffffffffffffffffffffffffffffff1673ffffffffffffffffffffffffffffffffffffffff16815260200191505060405180910390f35b3480156101b157600080fd5b506101ba610427565b6040518080602001828103825283818151815260200191508051906020019060200280838360005b838110156101fd5780820151818401526020810190506101e2565b505050509050019250505060405180910390f35b34801561021d57600080fd5b5061024d6004803603602081101561023457600080fd5b81019080803560ff1690602001909291905050506104ef565b6040518082815260200191505060405180910390f35b34801561026f57600080fd5b50610278610693565b6040518082815260200191505060405180910390f35b34801561029a57600080fd5b506102dd600480360360208110156102b157600080fd5b81019080803573ffffffffffffffffffffffffffffffffffffffff16906020019092919050505061073e565b604051808260ff1660ff16815260200191505060405180910390f35b34801561030557600080fd5b506103326004803603602081101561031c57600080fd5b8101908080359060200190929190505050610796565b604051808260ff1660ff16815260200191505060405180910390f35b606060018054806020026020016040519081016040528092919081815260200182805480156103d257602002820191906000526020600020905b8160009054906101000a900473ffffffffffffffffffffffffffffffffffffffff1673ffffffffffffffffffffffffffffffffffffffff1681526020019060010190808311610388575b5050505050905090565b6000600180549050905090565b6001818154811015156103f857fe5b906000526020600020016000915054906101000a900473ffffffffffffffffffffffffffffffffffffffff1681565b60608060018054905060405190808252806020026020018201604052801561045e5781602001602082028038833980820191505090505b50905060008090505b6001805490508110156104e7576104b660018281548110151561048657fe5b9060005260206000200160009054906101000a900473ffffffffffffffffffffffffffffffffffffffff1661073e565b82828151811015156104c457fe5b9060200190602002019060ff16908160ff16815250508080600101915050610467565b508091505090565b60008015156000803373ffffffffffffffffffffffffffffffffffffffff1673ffffffffffffffffffffffffffffffffffffffff16815260200190815260200160002060000160009054906101000a900460ff161515148015610556575060008260ff1610155b80156105665750600a8260ff1611155b151561057157600080fd5b60016000803373ffffffffffffffffffffffffffffffffffffffff1673ffffffffffffffffffffffffffffffffffffffff16815260200190815260200160002060000160006101000a81548160ff021916908315150217905550816000803373ffffffffffffffffffffffffffffffffffffffff1673ffffffffffffffffffffffffffffffffffffffff16815260200190815260200160002060000160016101000a81548160ff021916908360ff1602179055506001803390806001815401808255809150509060018203906000526020600020016000909192909190916101000a81548173ffffffffffffffffffffffffffffffffffffffff021916908373ffffffffffffffffffffffffffffffffffffffff160217905550039050919050565b60008061069e6103dc565b14156106ad576000905061073b565b600080905060008090505b6106c06103dc565b81101561071d576107096001828154811015156106d957fe5b9060005260206000200160009054906101000a900473ffffffffffffffffffffffffffffffffffffffff1661073e565b60ff168201915080806001019150506106b8565b506107266103dc565b600a820281151561073357fe5b049050809150505b90565b60008060008373ffffffffffffffffffffffffffffffffffffffff1673ffffffffffffffffffffffffffffffffffffffff16815260200190815260200160002060000160019054906101000a900460ff169050919050565b60006107da6001838154811015156107aa57fe5b9060005260206000200160009054906101000a900473ffffffffffffffffffffffffffffffffffffffff1661073e565b905091905056fea165627a7a72305820eefac4c9e81280a7faed40688116096337dfebdb3e87ca363bd4c5ff507af1170029",
  "source": "pragma solidity ^0.5.0;\r\n\r\nimport \"./MovieRank.sol\"; \r\nimport \"./CloneFactory.sol\"; \r\n\r\ncontract MovieRankFactory is MovieRank, CloneFactory{\r\n\r\n    address[] public movieRankArray;\r\n    \r\n    address public impl;\r\n    address owner = msg.sender;\r\n\r\n    modifier onlyOwner() {\r\n        require(msg.sender == owner);\r\n        _;\r\n    }\r\n\r\n    constructor(address _impl) public { //movieRankArray'ın 0 indexi kodda çok fazla sıkıntıya sebep olduğu için kullanılmayan\r\n        MovieRank movieRank = new MovieRank();//bir nesneyi array'e atadım\r\n        impl = _impl;//impl adresi _impl'e atadım\r\n        movieRankArray.push(address(movieRank));//movieRankArray'ın 0 indexine movieRank'ın adresini atadım\r\n    }\r\n\r\n\r\n    mapping (uint => uint) public movieIdtoIndex;\r\n    uint[] public movieIdList;\r\n\r\n    function createMovieRankContract(uint _movieId) public onlyOwner()  {\r\n        require(movieIdtoIndex[_movieId]==0);\r\n        address movieRank = createClone(impl);\r\n        \r\n        movieIdtoIndex[_movieId] = (movieRankArray.push(movieRank))-1;\r\n        movieIdList.push(_movieId);\r\n    }\r\n\r\n    function getMovieRank(uint _movieId) public view returns(MovieRank) { //movie id den MovieRank kontratını getiriyor\r\n        return MovieRank(address(movieRankArray[movieIdtoIndex[_movieId]]));\r\n    }\r\n\r\n\r\n    /*function mrfVote(uint _movieId, uint8 _rank) public returns(uint) {\r\n        require(movieIdtoIndex[_movieId]!=0);\r\n\r\n        return getMovieRank(_movieId).newRanking(_rank);\r\n    }*/\r\n\r\n    function mrfAverageRank(uint _movieId) public view returns(uint) {\r\n        return getMovieRank(_movieId).averageRank();\r\n    }\r\n\r\n    function mrfGetRankingCount(uint _movieId) public view returns(uint) {\r\n        return getMovieRank(_movieId).getRankingCount();\r\n    }\r\n\r\n    function mrfGetRankingByIndex(uint _movieId, uint _index) public view returns(uint) {\r\n        return getMovieRank(_movieId).getRankingByIndex(_index);\r\n    }\r\n\r\n    function mrfGetRankingAdressesList(uint _movieId) public view returns(address[] memory) {\r\n        return getMovieRank(_movieId).getRankingAddressList();\r\n    }\r\n\r\n    function mrfGetRankList(uint _movieId) public view returns(uint8[] memory) {\r\n        return getMovieRank(_movieId).getRankList();\r\n    }\r\n\r\n    function getMovieIdList() public view returns(uint[] memory) {\r\n        return movieIdList;\r\n    }\r\n\r\n    function getAllAverageRank() public view returns(uint[] memory) {//movieIdList'le eşli şekilde film ortalamalarını listeler\r\n        uint[] memory temp = new uint[](movieIdList.length);\r\n        for(uint i = 0; i < movieIdList.length; i++) {\r\n            temp[i] = mrfAverageRank(movieIdList[i]);\r\n        }\r\n        return temp;\r\n    }\r\n\r\n\r\n\r\n    \r\n\r\n    \r\n   \r\n    \r\n\r\n}\r\n",
  "sourcePath": "C:\\Users\\eren_\\Documents\\demos\\temp\\webentity2fortruffle-2\\WebAPIDenemeEntity2\\truffle\\contracts\\MovieRankFactory.sol",
  "compiler": {
    "name": "solc",
    "version": "0.5.0+commit.1d4f565a.Emscripten.clang"
  },
  "schemaVersion": "3.4.7",
  "updatedAt": "2022-06-24T09:30:30.722Z",
  "networkType": "ethereum",
  "devdoc": {
    "methods": {}
  },
  "userdoc": {
    "methods": {}
  }
}